{"abi":[{"type":"constructor","inputs":[{"name":"_creatorToken","type":"address","internalType":"address"},{"name":"_aiAgent","type":"address","internalType":"address"},{"name":"distributorConfigData","type":"bytes","internalType":"bytes"},{"name":"_gasLiteDropAddress","type":"address","internalType":"address"}],"stateMutability":"nonpayable"},{"type":"function","name":"aiAgent","inputs":[],"outputs":[{"name":"","type":"address","internalType":"address"}],"stateMutability":"view"},{"type":"function","name":"creatorToken","inputs":[],"outputs":[{"name":"","type":"address","internalType":"address"}],"stateMutability":"view"},{"type":"function","name":"distribute","inputs":[{"name":"recipients","type":"address[]","internalType":"address[]"},{"name":"amounts","type":"uint256[]","internalType":"uint256[]"},{"name":"totalAmount","type":"uint256","internalType":"uint256"}],"outputs":[],"stateMutability":"nonpayable"},{"type":"function","name":"distributeWithData","inputs":[{"name":"distributionDataBytes","type":"bytes","internalType":"bytes"},{"name":"signature","type":"bytes","internalType":"bytes"}],"outputs":[],"stateMutability":"nonpayable"},{"type":"function","name":"distributorConfig","inputs":[],"outputs":[{"name":"dailyDripAmount","type":"uint256","internalType":"uint256"},{"name":"dripInterval","type":"uint256","internalType":"uint256"},{"name":"totalDays","type":"uint256","internalType":"uint256"}],"stateMutability":"view"},{"type":"function","name":"gasLiteDropAddress","inputs":[],"outputs":[{"name":"","type":"address","internalType":"address"}],"stateMutability":"view"},{"type":"function","name":"owner","inputs":[],"outputs":[{"name":"","type":"address","internalType":"address"}],"stateMutability":"view"},{"type":"function","name":"renounceOwnership","inputs":[],"outputs":[],"stateMutability":"nonpayable"},{"type":"function","name":"totalDistributed","inputs":[],"outputs":[{"name":"","type":"uint256","internalType":"uint256"}],"stateMutability":"view"},{"type":"function","name":"transferOwnership","inputs":[{"name":"newOwner","type":"address","internalType":"address"}],"outputs":[],"stateMutability":"nonpayable"},{"type":"function","name":"usedHashes","inputs":[{"name":"","type":"bytes32","internalType":"bytes32"}],"outputs":[{"name":"","type":"bool","internalType":"bool"}],"stateMutability":"view"},{"type":"event","name":"AIAgentUpdated","inputs":[{"name":"agent","type":"address","indexed":true,"internalType":"address"},{"name":"allowed","type":"bool","indexed":false,"internalType":"bool"}],"anonymous":false},{"type":"event","name":"DistributionExecuted","inputs":[{"name":"dataHash","type":"bytes32","indexed":true,"internalType":"bytes32"},{"name":"executor","type":"address","indexed":true,"internalType":"address"}],"anonymous":false},{"type":"event","name":"OwnershipTransferred","inputs":[{"name":"previousOwner","type":"address","indexed":true,"internalType":"address"},{"name":"newOwner","type":"address","indexed":true,"internalType":"address"}],"anonymous":false},{"type":"error","name":"ECDSAInvalidSignature","inputs":[]},{"type":"error","name":"ECDSAInvalidSignatureLength","inputs":[{"name":"length","type":"uint256","internalType":"uint256"}]},{"type":"error","name":"ECDSAInvalidSignatureS","inputs":[{"name":"s","type":"bytes32","internalType":"bytes32"}]},{"type":"error","name":"OwnableInvalidOwner","inputs":[{"name":"owner","type":"address","internalType":"address"}]},{"type":"error","name":"OwnableUnauthorizedAccount","inputs":[{"name":"account","type":"address","internalType":"address"}]}],"bytecode":{"object":"0x608060405234801561000f575f5ffd5b5060405161239238038061239283398181016040528101906100319190610576565b335f73ffffffffffffffffffffffffffffffffffffffff168173ffffffffffffffffffffffffffffffffffffffff16036100a2575f6040517f1e4fbdf70000000000000000000000000000000000000000000000000000000081526004016100999190610605565b60405180910390fd5b6100b18161030e60201b60201c565b505f73ffffffffffffffffffffffffffffffffffffffff168473ffffffffffffffffffffffffffffffffffffffff1603610120576040517f08c379a000000000000000000000000000000000000000000000000000000000815260040161011790610678565b60405180910390fd5b5f73ffffffffffffffffffffffffffffffffffffffff168373ffffffffffffffffffffffffffffffffffffffff160361018e576040517f08c379a0000000000000000000000000000000000000000000000000000000008152600401610185906106e0565b60405180910390fd5b5f73ffffffffffffffffffffffffffffffffffffffff168173ffffffffffffffffffffffffffffffffffffffff16036101fc576040517f08c379a00000000000000000000000000000000000000000000000000000000081526004016101f390610748565b60405180910390fd5b8360015f6101000a81548173ffffffffffffffffffffffffffffffffffffffff021916908373ffffffffffffffffffffffffffffffffffffffff1602179055505f8280602001905181019061025191906107fe565b90508060065f820151815f015560208201518160010155604082015181600201559050508360025f6101000a81548173ffffffffffffffffffffffffffffffffffffffff021916908373ffffffffffffffffffffffffffffffffffffffff1602179055508160035f6101000a81548173ffffffffffffffffffffffffffffffffffffffff021916908373ffffffffffffffffffffffffffffffffffffffff1602179055506103048461030e60201b60201c565b5050505050610829565b5f5f5f9054906101000a900473ffffffffffffffffffffffffffffffffffffffff169050815f5f6101000a81548173ffffffffffffffffffffffffffffffffffffffff021916908373ffffffffffffffffffffffffffffffffffffffff1602179055508173ffffffffffffffffffffffffffffffffffffffff168173ffffffffffffffffffffffffffffffffffffffff167f8be0079c531659141344cd1fd0a4f28419497f9722a3daafe3b4186f6b6457e060405160405180910390a35050565b5f604051905090565b5f5ffd5b5f5ffd5b5f73ffffffffffffffffffffffffffffffffffffffff82169050919050565b5f610409826103e0565b9050919050565b610419816103ff565b8114610423575f5ffd5b50565b5f8151905061043481610410565b92915050565b5f5ffd5b5f5ffd5b5f601f19601f8301169050919050565b7f4e487b71000000000000000000000000000000000000000000000000000000005f52604160045260245ffd5b61048882610442565b810181811067ffffffffffffffff821117156104a7576104a6610452565b5b80604052505050565b5f6104b96103cf565b90506104c5828261047f565b919050565b5f67ffffffffffffffff8211156104e4576104e3610452565b5b6104ed82610442565b9050602081019050919050565b8281835e5f83830152505050565b5f61051a610515846104ca565b6104b0565b9050828152602081018484840111156105365761053561043e565b5b6105418482856104fa565b509392505050565b5f82601f83011261055d5761055c61043a565b5b815161056d848260208601610508565b91505092915050565b5f5f5f5f6080858703121561058e5761058d6103d8565b5b5f61059b87828801610426565b94505060206105ac87828801610426565b935050604085015167ffffffffffffffff8111156105cd576105cc6103dc565b5b6105d987828801610549565b92505060606105ea87828801610426565b91505092959194509250565b6105ff816103ff565b82525050565b5f6020820190506106185f8301846105f6565b92915050565b5f82825260208201905092915050565b7f496e76616c696420746f6b656e206164647265737300000000000000000000005f82015250565b5f61066260158361061e565b915061066d8261062e565b602082019050919050565b5f6020820190508181035f83015261068f81610656565b9050919050565b7f496e76616c6964204149206167656e74206164647265737300000000000000005f82015250565b5f6106ca60188361061e565b91506106d582610696565b602082019050919050565b5f6020820190508181035f8301526106f7816106be565b9050919050565b7f496e76616c6964204761736c69746544726f70206164647265737300000000005f82015250565b5f610732601b8361061e565b915061073d826106fe565b602082019050919050565b5f6020820190508181035f83015261075f81610726565b9050919050565b5f5ffd5b5f819050919050565b61077c8161076a565b8114610786575f5ffd5b50565b5f8151905061079781610773565b92915050565b5f606082840312156107b2576107b1610766565b5b6107bc60606104b0565b90505f6107cb84828501610789565b5f8301525060206107de84828501610789565b60208301525060406107f284828501610789565b60408301525092915050565b5f60608284031215610813576108126103d8565b5b5f6108208482850161079d565b91505092915050565b611b5c806108365f395ff3fe608060405234801561000f575f5ffd5b50600436106100a7575f3560e01c8063aef18bf71161006f578063aef18bf71461012d578063b6ab81c71461015d578063efca2eed1461017d578063f0934bcc1461019b578063f2fde38b146101b7578063f72df651146101d3576100a7565b8063483a5f14146100ab578063715018a6146100c95780638da5cb5b146100d35780639c04d0ff146100f1578063a6d5b7321461010f575b5f5ffd5b6100b36101ef565b6040516100c09190610d97565b60405180910390f35b6100d1610214565b005b6100db610227565b6040516100e89190610d97565b60405180910390f35b6100f961024e565b6040516101069190610d97565b60405180910390f35b610117610273565b6040516101249190610d97565b60405180910390f35b61014760048036038101906101429190610df4565b610298565b6040516101549190610e39565b60405180910390f35b6101656102b5565b60405161017493929190610e6a565b60405180910390f35b6101856102cc565b6040516101929190610e9f565b60405180910390f35b6101b560048036038101906101b09190610ff4565b6102d2565b005b6101d160048036038101906101cc9190611094565b6104e7565b005b6101ed60048036038101906101e8919061119b565b61056b565b005b60015f9054906101000a900473ffffffffffffffffffffffffffffffffffffffff1681565b61021c61073d565b6102255f6107c4565b565b5f5f5f9054906101000a900473ffffffffffffffffffffffffffffffffffffffff16905090565b60035f9054906101000a900473ffffffffffffffffffffffffffffffffffffffff1681565b60025f9054906101000a900473ffffffffffffffffffffffffffffffffffffffff1681565b6004602052805f5260405f205f915054906101000a900460ff1681565b6006805f0154908060010154908060020154905083565b60055481565b5f828060200190518101906102e79190611475565b90505f815f01518260200151836040015160405160200161030a9392919061162a565b60405160208183030381529060405280519060200120905061032c8284610885565b61036b576040517f08c379a0000000000000000000000000000000000000000000000000000000008152600401610362906116c7565b60405180910390fd5b5f60015f9054906101000a900473ffffffffffffffffffffffffffffffffffffffff1673ffffffffffffffffffffffffffffffffffffffff166370a08231306040518263ffffffff1660e01b81526004016103c69190610d97565b602060405180830381865afa1580156103e1573d5f5f3e3d5ffd5b505050506040513d601f19601f8201168201806040525081019061040591906116e5565b9050826040015181101561044e576040517f08c379a00000000000000000000000000000000000000000000000000000000081526004016104459061175a565b60405180910390fd5b600160045f8481526020019081526020015f205f6101000a81548160ff0219169083151502179055506104808361099a565b826040015160055f82825461049591906117a5565b925050819055503373ffffffffffffffffffffffffffffffffffffffff16827f42274517685631ceb8da6e0e8571c15ffaad151b2cce8ff761d1f9c0c63d754e60405160405180910390a35050505050565b6104ef61073d565b5f73ffffffffffffffffffffffffffffffffffffffff168173ffffffffffffffffffffffffffffffffffffffff160361055f575f6040517f1e4fbdf70000000000000000000000000000000000000000000000000000000081526004016105569190610d97565b60405180910390fd5b610568816107c4565b50565b60025f9054906101000a900473ffffffffffffffffffffffffffffffffffffffff1673ffffffffffffffffffffffffffffffffffffffff163373ffffffffffffffffffffffffffffffffffffffff16146105fa576040517f08c379a00000000000000000000000000000000000000000000000000000000081526004016105f190611848565b60405180910390fd5b60035f9054906101000a900473ffffffffffffffffffffffffffffffffffffffff1673ffffffffffffffffffffffffffffffffffffffff166382947abe60015f9054906101000a900473ffffffffffffffffffffffffffffffffffffffff1687878787876040518763ffffffff1660e01b815260040161067f96959493929190611954565b5f604051808303815f87803b158015610696575f5ffd5b505af11580156106a8573d5f5f3e3d5ffd5b505050508060055f8282546106bd91906117a5565b925050819055503373ffffffffffffffffffffffffffffffffffffffff1685858585856040516020016106f49594939291906119a9565b604051602081830303815290604052805190602001207f42274517685631ceb8da6e0e8571c15ffaad151b2cce8ff761d1f9c0c63d754e60405160405180910390a35050505050565b610745610a56565b73ffffffffffffffffffffffffffffffffffffffff16610763610227565b73ffffffffffffffffffffffffffffffffffffffff16146107c257610786610a56565b6040517f118cdaa70000000000000000000000000000000000000000000000000000000081526004016107b99190610d97565b60405180910390fd5b565b5f5f5f9054906101000a900473ffffffffffffffffffffffffffffffffffffffff169050815f5f6101000a81548173ffffffffffffffffffffffffffffffffffffffff021916908373ffffffffffffffffffffffffffffffffffffffff1602179055508173ffffffffffffffffffffffffffffffffffffffff168173ffffffffffffffffffffffffffffffffffffffff167f8be0079c531659141344cd1fd0a4f28419497f9722a3daafe3b4186f6b6457e060405160405180910390a35050565b5f5f835f0151846020015185604001516040516020016108a79392919061162a565b60405160208183030381529060405280519060200120905060045f8281526020019081526020015f205f9054906101000a900460ff161561091d576040517f08c379a000000000000000000000000000000000000000000000000000000000815260040161091490611a3a565b60405180910390fd5b5f61092782610a5d565b90505f61093d8583610a9090919063ffffffff16565b905060025f9054906101000a900473ffffffffffffffffffffffffffffffffffffffff1673ffffffffffffffffffffffffffffffffffffffff168173ffffffffffffffffffffffffffffffffffffffff1614935050505092915050565b60035f9054906101000a900473ffffffffffffffffffffffffffffffffffffffff1673ffffffffffffffffffffffffffffffffffffffff166382947abe60015f9054906101000a900473ffffffffffffffffffffffffffffffffffffffff16835f0151846020015185604001516040518563ffffffff1660e01b8152600401610a269493929190611a58565b5f604051808303815f87803b158015610a3d575f5ffd5b505af1158015610a4f573d5f5f3e3d5ffd5b5050505050565b5f33905090565b5f7f19457468657265756d205369676e6564204d6573736167653a0a3332000000005f5281601c52603c5f209050919050565b5f5f5f5f610a9e8686610aba565b925092509250610aae8282610b0f565b82935050505092915050565b5f5f5f6041845103610afa575f5f5f602087015192506040870151915060608701515f1a9050610aec88828585610c71565b955095509550505050610b08565b5f600285515f1b9250925092505b9250925092565b5f6003811115610b2257610b21611aa9565b5b826003811115610b3557610b34611aa9565b5b0315610c6d5760016003811115610b4f57610b4e611aa9565b5b826003811115610b6257610b61611aa9565b5b03610b99576040517ff645eedf00000000000000000000000000000000000000000000000000000000815260040160405180910390fd5b60026003811115610bad57610bac611aa9565b5b826003811115610bc057610bbf611aa9565b5b03610c0457805f1c6040517ffce698f7000000000000000000000000000000000000000000000000000000008152600401610bfb9190610e9f565b60405180910390fd5b600380811115610c1757610c16611aa9565b5b826003811115610c2a57610c29611aa9565b5b03610c6c57806040517fd78bce0c000000000000000000000000000000000000000000000000000000008152600401610c639190611ae5565b60405180910390fd5b5b5050565b5f5f5f7f7fffffffffffffffffffffffffffffff5d576e7357a4501ddfe92f46681b20a0845f1c1115610cad575f600385925092509250610d4e565b5f6001888888886040515f8152602001604052604051610cd09493929190611b19565b6020604051602081039080840390855afa158015610cf0573d5f5f3e3d5ffd5b5050506020604051035190505f73ffffffffffffffffffffffffffffffffffffffff168173ffffffffffffffffffffffffffffffffffffffff1603610d41575f60015f5f1b93509350935050610d4e565b805f5f5f1b935093509350505b9450945094915050565b5f73ffffffffffffffffffffffffffffffffffffffff82169050919050565b5f610d8182610d58565b9050919050565b610d9181610d77565b82525050565b5f602082019050610daa5f830184610d88565b92915050565b5f604051905090565b5f5ffd5b5f5ffd5b5f819050919050565b610dd381610dc1565b8114610ddd575f5ffd5b50565b5f81359050610dee81610dca565b92915050565b5f60208284031215610e0957610e08610db9565b5b5f610e1684828501610de0565b91505092915050565b5f8115159050919050565b610e3381610e1f565b82525050565b5f602082019050610e4c5f830184610e2a565b92915050565b5f819050919050565b610e6481610e52565b82525050565b5f606082019050610e7d5f830186610e5b565b610e8a6020830185610e5b565b610e976040830184610e5b565b949350505050565b5f602082019050610eb25f830184610e5b565b92915050565b5f5ffd5b5f5ffd5b5f601f19601f8301169050919050565b7f4e487b71000000000000000000000000000000000000000000000000000000005f52604160045260245ffd5b610f0682610ec0565b810181811067ffffffffffffffff82111715610f2557610f24610ed0565b5b80604052505050565b5f610f37610db0565b9050610f438282610efd565b919050565b5f67ffffffffffffffff821115610f6257610f61610ed0565b5b610f6b82610ec0565b9050602081019050919050565b828183375f83830152505050565b5f610f98610f9384610f48565b610f2e565b905082815260208101848484011115610fb457610fb3610ebc565b5b610fbf848285610f78565b509392505050565b5f82601f830112610fdb57610fda610eb8565b5b8135610feb848260208601610f86565b91505092915050565b5f5f6040838503121561100a57611009610db9565b5b5f83013567ffffffffffffffff81111561102757611026610dbd565b5b61103385828601610fc7565b925050602083013567ffffffffffffffff81111561105457611053610dbd565b5b61106085828601610fc7565b9150509250929050565b61107381610d77565b811461107d575f5ffd5b50565b5f8135905061108e8161106a565b92915050565b5f602082840312156110a9576110a8610db9565b5b5f6110b684828501611080565b91505092915050565b5f5ffd5b5f5ffd5b5f5f83601f8401126110dc576110db610eb8565b5b8235905067ffffffffffffffff8111156110f9576110f86110bf565b5b602083019150836020820283011115611115576111146110c3565b5b9250929050565b5f5f83601f84011261113157611130610eb8565b5b8235905067ffffffffffffffff81111561114e5761114d6110bf565b5b60208301915083602082028301111561116a576111696110c3565b5b9250929050565b61117a81610e52565b8114611184575f5ffd5b50565b5f8135905061119581611171565b92915050565b5f5f5f5f5f606086880312156111b4576111b3610db9565b5b5f86013567ffffffffffffffff8111156111d1576111d0610dbd565b5b6111dd888289016110c7565b9550955050602086013567ffffffffffffffff811115611200576111ff610dbd565b5b61120c8882890161111c565b9350935050604061121f88828901611187565b9150509295509295909350565b5f5ffd5b5f5ffd5b5f67ffffffffffffffff82111561124e5761124d610ed0565b5b602082029050602081019050919050565b5f8151905061126d8161106a565b92915050565b5f61128561128084611234565b610f2e565b905080838252602082019050602084028301858111156112a8576112a76110c3565b5b835b818110156112d157806112bd888261125f565b8452602084019350506020810190506112aa565b5050509392505050565b5f82601f8301126112ef576112ee610eb8565b5b81516112ff848260208601611273565b91505092915050565b5f67ffffffffffffffff82111561132257611321610ed0565b5b602082029050602081019050919050565b5f8151905061134181611171565b92915050565b5f61135961135484611308565b610f2e565b9050808382526020820190506020840283018581111561137c5761137b6110c3565b5b835b818110156113a557806113918882611333565b84526020840193505060208101905061137e565b5050509392505050565b5f82601f8301126113c3576113c2610eb8565b5b81516113d3848260208601611347565b91505092915050565b5f606082840312156113f1576113f061122c565b5b6113fb6060610f2e565b90505f82015167ffffffffffffffff81111561141a57611419611230565b5b611426848285016112db565b5f83015250602082015167ffffffffffffffff81111561144957611448611230565b5b611455848285016113af565b602083015250604061146984828501611333565b60408301525092915050565b5f6020828403121561148a57611489610db9565b5b5f82015167ffffffffffffffff8111156114a7576114a6610dbd565b5b6114b3848285016113dc565b91505092915050565b5f81519050919050565b5f82825260208201905092915050565b5f819050602082019050919050565b6114ee81610d77565b82525050565b5f6114ff83836114e5565b60208301905092915050565b5f602082019050919050565b5f611521826114bc565b61152b81856114c6565b9350611536836114d6565b805f5b8381101561156657815161154d88826114f4565b97506115588361150b565b925050600181019050611539565b5085935050505092915050565b5f81519050919050565b5f82825260208201905092915050565b5f819050602082019050919050565b6115a581610e52565b82525050565b5f6115b6838361159c565b60208301905092915050565b5f602082019050919050565b5f6115d882611573565b6115e2818561157d565b93506115ed8361158d565b805f5b8381101561161d57815161160488826115ab565b975061160f836115c2565b9250506001810190506115f0565b5085935050505092915050565b5f6060820190508181035f8301526116428186611517565b9050818103602083015261165681856115ce565b90506116656040830184610e5b565b949350505050565b5f82825260208201905092915050565b7f496e76616c6964207369676e61747572650000000000000000000000000000005f82015250565b5f6116b160118361166d565b91506116bc8261167d565b602082019050919050565b5f6020820190508181035f8301526116de816116a5565b9050919050565b5f602082840312156116fa576116f9610db9565b5b5f61170784828501611333565b91505092915050565b7f496e73756666696369656e7420636f6e74726163742062616c616e63650000005f82015250565b5f611744601d8361166d565b915061174f82611710565b602082019050919050565b5f6020820190508181035f83015261177181611738565b9050919050565b7f4e487b71000000000000000000000000000000000000000000000000000000005f52601160045260245ffd5b5f6117af82610e52565b91506117ba83610e52565b92508282019050808211156117d2576117d1611778565b5b92915050565b7f4f6e6c79204149206167656e742063616e2063616c6c20746869732066756e635f8201527f74696f6e00000000000000000000000000000000000000000000000000000000602082015250565b5f61183260248361166d565b915061183d826117d8565b604082019050919050565b5f6020820190508181035f83015261185f81611826565b9050919050565b5f819050919050565b5f61187d6020840184611080565b905092915050565b5f602082019050919050565b5f61189c83856114c6565b93506118a782611866565b805f5b858110156118df576118bc828461186f565b6118c688826114f4565b97506118d183611885565b9250506001810190506118aa565b5085925050509392505050565b5f5ffd5b82818337505050565b5f611904838561157d565b93507f07ffffffffffffffffffffffffffffffffffffffffffffffffffffffffffffff831115611937576119366118ec565b5b6020830292506119488385846118f0565b82840190509392505050565b5f6080820190506119675f830189610d88565b818103602083015261197a818789611891565b9050818103604083015261198f8185876118f9565b905061199e6060830184610e5b565b979650505050505050565b5f6060820190508181035f8301526119c2818789611891565b905081810360208301526119d78185876118f9565b90506119e66040830184610e5b565b9695505050505050565b7f4861736820616c726561647920757365640000000000000000000000000000005f82015250565b5f611a2460118361166d565b9150611a2f826119f0565b602082019050919050565b5f6020820190508181035f830152611a5181611a18565b9050919050565b5f608082019050611a6b5f830187610d88565b8181036020830152611a7d8186611517565b90508181036040830152611a9181856115ce565b9050611aa06060830184610e5b565b95945050505050565b7f4e487b71000000000000000000000000000000000000000000000000000000005f52602160045260245ffd5b611adf81610dc1565b82525050565b5f602082019050611af85f830184611ad6565b92915050565b5f60ff82169050919050565b611b1381611afe565b82525050565b5f608082019050611b2c5f830187611ad6565b611b396020830186611b0a565b611b466040830185611ad6565b611b536060830184611ad6565b9594505050505056","linkReferences":{}},"methodIdentifiers":{"aiAgent()":"a6d5b732","creatorToken()":"483a5f14","distribute(address[],uint256[],uint256)":"f72df651","distributeWithData(bytes,bytes)":"f0934bcc","distributorConfig()":"b6ab81c7","gasLiteDropAddress()":"9c04d0ff","owner()":"8da5cb5b","renounceOwnership()":"715018a6","totalDistributed()":"efca2eed","transferOwnership(address)":"f2fde38b","usedHashes(bytes32)":"aef18bf7"},"id":48}